:020000040800F2
:10000000481A0020450100089D2F00089F2F000876
:10001000A32F0008A72F0008AB2F00080000000046
:10002000000000000000000000000000AF2F0008EA
:10003000B12F000800000000B32F0008B52F000802
:100040005F0100085F0100085F0100085F01000810
:100050005F0100085F0100085F0100085F01000800
:100060005F0100085F0100085F0100085F010008F0
:100070005F0100085F0100085F0100085F010008E0
:100080005F0100085F0100085F0100085F010008D0
:100090005F0100085F0100085F0100085F010008C0
:1000A0005F0100085F0100085F0100085F010008B0
:1000B0005F0100085F0100085F0100085F010008A0
:1000C0005F0100085F0100085F0100085F01000890
:1000D0005F010008BD4300085F0100085F010008E0
:1000E0005F0100085F0100085F0100085F01000870
:1000F0005F0100085F0100085F0100085F01000860
:100100005F0100085F0100085F0100085F0100084F
:100110005F0100085F0100085F0100085F0100083F
:100120005F0100085F0100085F0100085F0100082F
:10013000DFF80CD005F03AFA00480047412E0008DD
:10014000481A00200648804706480047FEE7FEE7B9
:10015000FEE7FEE7FEE7FEE7FEE7FEE7FEE7FEE777
:1001600047020008310100080CB500200190009002
:100170006C48006840F480306A49086000BF6948F4
:10018000006800F4003000900198401C0190009835
:1001900018B90198B0F5A06FF1D16248006800F479
:1001A000003010B10120009001E000200090009884
:1001B000012843D15C48006840F010005A490860AB
:1001C0000846006820F0030008600846006840F018
:1001D0000200086053484068524948600846406839
:1001E00048600846406840F48060486008464068BF
:1001F00020F47C1048600846406840F4E8104860ED
:100200000846006840F08070086000BF45480068FC
:1002100000F000700028F9D04248406820F0030048
:10022000404948600846406840F00200486000BF0E
:100230003C48406800F00C000828F9D10CBD10B50E
:10024000FFF792FF10BD10B53648006840F001007E
:1002500034490860084640683449084031494860DC
:1002600008460068324908402E4908600846006880
:1002700020F4802008600846406820F4FE004860B2
:100280004FF41F008860FFF7DAFF4FF00060294944
:10029000086010BD10B5002100200022214B5B68D2
:1002A00003F00C0121B1042906D0082928D107E068
:1002B000214B224C236027E01F4B204C236023E07E
:1002C000184B5B6803F47010164B5B6803F48032C4
:1002D000022303EB904022B9194B4343174C236090
:1002E0000DE0104B5B6803F4003323B1144B434320
:1002F000124C236003E0104B4343104C236003E097
:100300000D4B0E4C236000BF00BF064B5B68C3F370
:1003100003130C4CE15C094B1B68CB40074C23607A
:1003200010BD000000100240002002400000FFF855
:10033000FFFFF6FE08ED00E000127A00000000204A
:1003400000093D000400002031490143314A116099
:10035000704770B5002100230F22C47804B32D4CE0
:10036000246804F4E064C4F5E064210AC1F10403E4
:10037000CA40447804FA03F1847814402143090107
:10038000254C0678A155047804F01F050124AC40E3
:1003900005786D11AD0005F1E025C5F8004109E0D3
:1003A000047804F01F050124AC401C4D067876113A
:1003B00045F8264070BD1A4A0A400243154B1B1FE0
:1003C0001A60704739B1134A121D12680243114B6B
:1003D0001B1D1A6006E00F4A121D126882430D4B66
:1003E0001B1D1A607047042808D14FF0E0210969ED
:1003F00041F004014FF0E022116107E04FF0E021ED
:10040000096921F004014FF0E022116170470000FA
:100410000000FA050CED00E000E400E080E100E0FF
:1004200080FFFF1F01460020FE4A106800F03800E0
:10043000084310607047FB49096821F00801F94A38
:10044000116011460968014311607047F549096858
:1004500021F01001F34A116011460968014311604F
:100460007047F148EF494860F04848607047EE48EF
:10047000EC494860ED4848607047EA48006940F040
:100480008000E84908617047E648006940F0800054
:10049000E449086170470420E249C96801F001019C
:1004A00009B101200EE0DF49C96801F0040109B17A
:1004B000022007E0DB49C96801F0100109B10320FF
:1004C00000E00420704700B502460423FFF7E3FF75
:1004D000034603E0FFF7DFFF0346521E012B01D165
:1004E000002AF7D102B90523184600BD30B50446ED
:1004F00004254FF43020FFF7E6FF0546042D17D101
:10050000C848006940F00200C649086108464461D5
:10051000006940F0400008614FF43020FFF7D3FF3E
:100520000546C048006941F6FD710840BD490861B3
:10053000284630BD10B504244FF43020FFF7C3FF28
:100540000446042C16D1B748006940F00400B549B0
:1005500008610846006940F0400008614FF430200F
:10056000FFF7B1FF0446AF48006941F6FB71084050
:10057000AC490861204610BD00B502460423FFF7D0
:100580008AFF034603E0FFF786FF0346521E012B56
:1005900001D1002AF7D102B90523184600BD10B5D4
:1005A00004244FF43020FFF7E7FF0446042C16D153
:1005B0009C48006940F004009A49086108460069B7
:1005C00040F0400008614FF43020FFF7D5FF0446AB
:1005D0009448006941F6FB71084092490861204641
:1005E00010BD00208F49C96901F0020109B1012045
:1005F00000E00020704730B5A5250424FFF7F1FF87
:1006000000B100254FF43020FFF75DFF0446042CB5
:100610003AD18548834988608448886008460069E3
:1006200040F0200008610846006940F04000086181
:100630004FF43020FFF747FF0446042C1BD17948C4
:10064000006941F6DF710840764908610846006993
:1006500040F01000086176480580E002FFF733FFA4
:100660000446052C10D06F48006941F6EF71084030
:100670006C49086108E0052C06D06A48006941F61B
:10068000EF71084067490861204630BD78B50646DD
:100690000C46042500200090E802FFF714FF0546F1
:1006A000042D24D15F48006940F001005D490861D4
:1006B0003480E802FFF707FF0546042D10D1B01C77
:1006C0000090200C00990880E802FFF7FCFE054628
:1006D0005448006941F6FE7108405249086106E03D
:1006E0005048006941F6FE7108404E4908612846AD
:1006F00078BD70B504460D460426F002FFF7E3FE10
:100700000646042E11D14748006940F001004549D2
:1007100008612580F002FFF7D6FE064641480069D1
:1007200041F6FE7108403F490861304670BD70B522
:1007300005460E460424E002FFF7C5FE0446042CDD
:1007400017D13948374988603848886008460069B9
:1007500040F0100008612E80E002FFF7B4FE04466E
:10076000052C06D02F48006941F6EF7108402D494D
:100770000861204670BD2DE9F04304464FF6FF7630
:100780003746B046B1460425E443E6B2C4F3072732
:10079000C4F307484FEA1469E802FFF794FE0546E0
:1007A000042D49D120481F498860204888600846A8
:1007B000006940F010000861FF2E06D01C48083088
:1007C0000680E802FFF77FFE0546042D08D1FF2FC3
:1007D00006D017480A300780E802FFF774FE054686
:1007E000042D0AD1B8F1FF0F07D011480C30A0F842
:1007F0000080E802FFF767FE0546042D0AD1B9F133
:10080000FF0F07D00A480E30A0F80090E802FFF76B
:100810005AFE0546052D0FD00248006941F6EF71DA
:10082000084007E00020024023016745AB89EFCD77
:1008300000F8FF1F664908612846BDE8F08330B51F
:10084000054604244FF43020FFF73DFE0446042CF7
:1008500041D160485E4988605F4888600846006909
:1008600040F0200008610846006940F0400008613F
:100870004FF43020FFF727FE0446042C22D15448C1
:10088000006941F6DF710840514908610846006976
:1008900040F0100008611DB100205049088002E0BE
:1008A000A5204E4908804FF43020FFF70CFE044687
:1008B000052C10D04648006941F6EF7108404449C4
:1008C000086108E0052C06D04148006941F6DF7157
:1008D00008403F490861204630BDF0B505460E4648
:1008E000174604243B483A4988603B488860E00248
:1008F000FFF7E9FD0446042C19D13548006940F0A2
:1009000010003349086147F0F80030432843334969
:10091000891C0880E002FFF7D6FD0446052C06D0AE
:100920002B48006941F6EF710840294908612046CB
:10093000F0BD2748C069800870472548006A7047A5
:1009400000202349096801F0200109B1012000E0DD
:100950000020704729B11E4A126902431C4B1A61DC
:1009600004E01B4A12698243194B1A617047014621
:100970000020012908D1164AD26902F001020AB109
:10098000012008E0002006E0114AD2680A400AB1BE
:10099000012000E0002070470D49C8607047042026
:1009A0000B49C96801F0010109B101200EE00849B5
:1009B000C96801F0040109B1022007E00449C968CF
:1009C00001F0100109B1032000E00420704700008D
:1009D0000020024023016745AB89EFCD00F8FF1FDF
:1009E00010B50446CC48844208D10121042000F00F
:1009F0002FFD0021042000F02BFD46E0C748844273
:100A000008D10121082000F023FD0021082000F07A
:100A10001FFD3AE0C248844208D10121102000F0B5
:100A200017FD0021102000F013FD2EE0BD48844288
:100A300008D10121202000F00BFD0021202000F032
:100A400007FD22E0B848844208D10121402000F08F
:100A5000FFFC0021402000F0FBFC16E0B34884427C
:100A600008D10121802000F0F3FC0021802000F05B
:100A7000EFFC0AE0AE48844207D10121801500F066
:100A8000E7FC0021A01500F0E3FC10BD10B501212A
:100A9000084600F0DDFC0021012000F0D9FC10BD6B
:100AA0002DE9F04102460025002600200023002405
:100AB000002791F803C00CF00F0591F803C00CF06B
:100AC000100CBCF1000F03D091F802C04CEA0505F0
:100AD00091F800C0BCF1000F31D0146800202BE069
:100AE0004FF0010C0CFA00F3B1F800C00CEA030659
:100AF0009E4220D183004FF00F0C0CFA03F7BC4349
:100B000005FA03FC4CEA040491F803C0BCF1280F79
:100B100006D14FF0010C0CFA00FCC2F814C00AE038
:100B200091F803C0BCF1480F05D14FF0010C0CFA4D
:100B300000FCC2F810C0401C0828D1D31460B1F8E2
:100B400000C0BCF1FF0F34DD546800202EE000F13E
:100B5000080C4FF0010808FA0CF3B1F800C00CEAD9
:100B600003069E4221D183004FF00F0C0CFA03F7CD
:100B7000BC4305FA03FC4CEA040491F803C0BCF141
:100B8000280F05D100F1080C08FA0CF8C2F81480FF
:100B900091F803C0BCF1480F07D100F1080C4FF0E9
:100BA000010808FA0CF8C2F81080401C0828CED3BF
:100BB0005460BDE8F0814FF6FF7101800221817021
:100BC0000421C17070470246002093680B400BB1AE
:100BD000012000E0002070470146886880B270471D
:100BE00002460020D3680B400BB1012000E000203A
:100BF00070470146C86880B2704701617047416123
:100C000070470AB1016100E041617047C1607047FF
:100C10004FF480320A438261816182618269826914
:100C2000704702460020434B18684FF68073184007
:100C300040EA021008433F4B186070473E49C861C4
:100C40007047F0B50A46002300240021002500F07B
:100C50000046B6F1004F02D1364EF16901E0354E43
:100C60007168C0F3034583B200F44016B6F5401F27
:100C700008D121F070612F4E766826F070662D4FF6
:100C80007E6012E000F48016B6F5801F06D10326C0
:100C900006FA05F4A14341F0706106E0460D360105
:100CA00003FA06F6B14341F0706122B1460D3601F8
:100CB00003FA06F6314300F00046B6F1004F02D1C8
:100CC0001C4EF16101E01B4E7160F0BD30B5002299
:100CD0008B071C0F0F2303FA04F2164B08338C10FA
:100CE00053F824309343134C08348D1044F82530C6
:100CF00023468C1053F824308C07240F00FA04F498
:100D000023430C4C08348D1044F8253030BD0A497B
:100D1000DC3108607047000000080140000C014011
:100D2000001001400014014000180140001C014067
:100D300000200140000001400000204210B50446A0
:100D4000F748844209D10121480500F08EFB0021BB
:100D50004FF4001000F089FB08E00121880500F045
:100D600084FB00214FF4800000F07FFB10BD2DE9D3
:100D7000F04385B004460D460026B1460427DFF84F
:100D8000A483A6884FF6C0700640684600F0D9FAE2
:100D9000DDF80880E448B8FBF0F01FFA80F946EA75
:100DA0000906A68020884FF6FE71084020800026A4
:100DB000DE49286888420CD828684000B8FBF0F06B
:100DC00087B2042F00DA04273E4309F10100208492
:100DD00027E0E8884BF6FF71884206D1286800EBCF
:100DE0004000B8FBF0F087B209E0286800EBC001D2
:100DF00001EB0010B8FBF0F087B247F48047C7F36F
:100E00000B0008B947F0010747F4004006434FF4D0
:100E1000967009FB00F04FF47A7190FBF1F0401CE2
:100E20002084A683208840F00100208026884FF689
:100E3000F5300640A8886989084306432680A889BA
:100E400029890843208105B0BDE8F08341F288314B
:100E50000160002181804BF6FF71C180002101817A
:100E600041814FF480418181704721B1028842F075
:100E70000102028004E002884FF6FE731A400280ED
:100E8000704721B1828842F40062828004E0828847
:100E90004FF2FF731A408280704721B1828842F47A
:100EA0008052828004E082884EF6FF731A4082806E
:100EB000704721B1028842F48072028004E0028807
:100EC0004FF6FF631A400280704721B1028842F456
:100ED0000072028004E002884FF6FF531A4002803D
:100EE000704721B1028842F48062028004E00288E7
:100EF0004FF6FF331A40028070470A46002181896D
:100F00004FF60173194002F0FE03194381817047C7
:100F100021B1828942F00102828104E082894FF688
:100F2000FE731A408281704721B1028842F040026C
:100F3000028004E002884FF6BF731A4002807047B7
:100F40001AB183880B43838002E083888B438380BC
:100F50007047018270470146088AC0B2704712B1DB
:100F600041F0010102E04FF6FE7319400182704723
:100F700008B50246002000900092009808440090B6
:100F80000098008808BD21B1028842F40042028026
:100F900003E00288C2F30E0202807047B1F5006FD1
:100FA00004D1028842F40062028004E002884FF219
:100FB000FF731A4002807047B1F5005F04D10288C8
:100FC00042F40052028004E002884DF6FF731A409A
:100FD0000280704721B1028842F48052028004E00E
:100FE00002884EF6FF731A4002807047B1F5006F19
:100FF00004D1028842F40062028004E002884FF2C9
:10100000FF731A400280704721B1028842F020022B
:10101000028004E002884FF6DF731A4002807047B6
:101020000146088B0012704721B1028842F010027D
:10103000028004E002884FF6EF731A400280704786
:1010400021B9028842F08002028004E002884FF653
:101050007F731A4002807047B1F5804F05D0828BB4
:101060004BF6FF731A40828303E0828B42F4804286
:101070008283704770B502460024002500230020BB
:10108000958A138B1B0445EA030626F07F4404EA85
:1010900001068E4201D1012000E0002070BD10B594
:1010A00001460020002300228B8A0A8B120443EAA7
:1010B000020424F07F4010BD0CB50246002000233E
:1010C0000193009300920B0F019321F07F41019B4C
:1010D0001BB1009B1433009303E0090C009B1833F1
:1010E0000093009B1B680B400BB1012000E0002027
:1010F0000CBD002221F07F42D3438382704730B57C
:10110000024600200023948801F0E06504EA1543BC
:1011100021F07F41948A0C4054B14BB1012008E08A
:101120000054004000127A0040420F00A0860100E7
:10113000002030BD002221F07F42D34383827047DC
:10114000DF48006840F00100DD490860084640685B
:10115000DC490840DA49486008460068DA49084036
:10116000D74908600846006820F4802008600846D7
:10117000406820F4FE0048604FF41F00886070470C
:10118000CF49096821F48031CD4A116011460968C0
:1011900021F480211160B0F5803F03D0B0F5802F9D
:1011A0000ED106E0C649096841F48031C44A116095
:1011B00007E0C349096841F4A021C14A116000E079
:1011C00000BF00BF704710B5014600220023002079
:1011D0004A11012A02D1BA4C236806E0022A02D140
:1011E000B74C236A01E0B64C636A01F01F02012488
:1011F00094401C400CB1012000E0002010BD38B527
:10120000002000900024002500BF3120FFF7DBFF05
:1012100005460098401C00900098B0F5A06F01D0E2
:10122000002DF2D03120FFF7CEFF08B1012400E0FD
:101230000024204638BD01460020A14A106820F055
:10124000F80040EAC10010607047A049086070478C
:10125000024600209A4B586820F47C1042EA0103B1
:101260001843974B58607047984908667047014685
:101270000020934A506820F00300084350607047F4
:101280008F48406800F00C007047014600208C4AEF
:10129000506820F0F000084350607047014600207D
:1012A000874A506820F4E060084350607047014668
:1012B0000020834A506820F4605040EAC10050602A
:1012C000704729B17E4A527A02437D4B5A7204E03C
:1012D0007B4A527A82437A4B5A7270477B49D831A3
:1012E0000860704701460020754A506820F440406D
:1012F0000843506070470021714A20321170704AD3
:1013000082F82010012802D004280AD104E001212B
:101310006B4A2032117005E00521694A20321170B4
:1013200000E000BF00BF704769490860704764492A
:10133000096A0143624A116270476549443908608D
:10134000704730B500210022002400235C4D6D68F9
:1013500005F00C0121B1042905D0082923D105E0AD
:101360005C4D056022E05B4D05601FE0544D6D68EB
:1013700005F47012524D6D6805F48034022505EBBA
:1013800092421CB9544D554305600BE04C4D6D68BD
:1013900005F400351DB1504D5543056002E04D4D3B
:1013A0005543056002E04B4D056000BF00BF444D52
:1013B0006D6805F0F0010909484D6B5C0568DD407A
:1013C00045603F4D6D6805F4E061090A434D6B5C73
:1013D0004568DD4085603A4D6D6805F46051C90A85
:1013E0003E4D6B5C4568DD40C560354D6D6805F46C
:1013F0004041890B3A4D6B5CC568B5FBF3F505615F
:1014000030BD29B12E4A526902432D4B5A6104E086
:101410002B4A526982432A4B5A61704729B1284AA4
:1014200092690243264B9A6104E0254A92698243FD
:10143000234B9A61704729B1214AD2690243204B5C
:10144000DA6104E01E4AD26982431D4BDA617047BB
:1014500029B11B4AD2680243194BDA6004E0184AEA
:10146000D2688243164BDA60704729B1144A126978
:101470000243134B1A6104E0114A12698243104B74
:101480001A61704712494039086070470F49C864B3
:1014900070470B49C87170470948406A40F0807036
:1014A00007494862704701460020054A92680A4091
:1014B0000AB1012000E0002070470149887270479E
:1014C000001002400000FFF8FFFFF6FE000042425D
:1014D0008004424200127A0000093D0014000020FE
:1014E0002400002010B50446FB48844209D10121A4
:1014F0008803FFF7ADFF00214FF48040FFF7A8FFFE
:1015000032E0F648844209D101214804FFF7ADFFDB
:1015100000214FF40030FFF7A8FF25E0F048844297
:1015200009D101218804FFF7A0FF00214FF480209A
:10153000FFF79BFF18E0EB48844209D10121C80462
:10154000FFF793FF00214FF40020FFF78EFF0BE021
:10155000E548844208D101210805FFF786FF0021F4
:101560004FF48010FFF781FF10BD2DE9F04786B0E2
:1015700005460E460024A24600BFA1460027B089BA
:1015800000B100BF2F462C8A4CF6FF700440F08853
:1015900004432C82AC894EF6F3100440B0883189A4
:1015A0000843718908430443AC81AC8A4FF6FF407D
:1015B0000440B0890443AC8201A8FFF7C2FEC648CC
:1015C000874202D1DDF810A001E0DDF80CA0A88967
:1015D00000F4004040B10AEBCA0000EB0A10316889
:1015E0004900B0FBF1F807E00AEBCA0000EB0A1073
:1015F00031688900B0FBF1F86420B8FBF0F0040119
:101600002009642101FB1089A88900F4004040B141
:10161000322000EBC900B0FBF1F000F007000443FA
:1016200008E0322000EB09106421B0FBF1F000F07B
:101630000F0004432C8106B0BDE8F0874FF416512B
:10164000016000218180C18001810C214181002144
:101650008181704710B502460020108A4FF2FF03C7
:1016600018400B884C8823438C882343CC88234321
:101670001843108210BD0021018041808180C1800B
:10168000704721B1828942F40052828104E082894C
:101690004DF6FF731A4082817047F0B5034600246F
:1016A00000260025002040F66A17B94200D100BF8D
:1016B0001846C1F3421401F01F06012707FA06F588
:1016C000012C01D10C3004E0022C01D1103000E0DB
:1016D00014301AB107682F43076002E00768AF4370
:1016E0000760F0BD1AB1838A0B43838202E0838ACC
:1016F0008B4383827047028A4FF6F0731A4002824E
:10170000028A0A430282704782894FF2FF731A40AD
:10171000828182890A438281704721B1828942F0A5
:101720000202828104E082894FF6FD731A408281B1
:101730007047028A4FF6DF731A400282028A0A4318
:101740000282704721B1028A42F48042028204E0A0
:10175000028A4BF6FF731A4002827047C1F30802F7
:101760008280704701468888C0F3080070478189ED
:1017700041F0010181817047028BD2B20283028B5A
:1017800042EA012202837047028B02F47F42028305
:10179000028B0A430283704721B1828A42F0200201
:1017A000828204E0828A4FF6DF731A408282704799
:1017B00021B1828A42F01002828204E0828A4FF6CE
:1017C000EF731A408282704721B1828A42F0080288
:1017D000828204E0828A4FF6F7731A408282704751
:1017E00021B1828942F40042828103E08289C2F3FE
:1017F0000E028281704721B1828A42F400628282A5
:1018000004E0828A4FF2FF731A4082827047828A14
:101810004FF6FB731A408282828A0A4382827047A3
:1018200021B1828A42F00202828204E0828A4FF66B
:10183000FD731A408282704702460020B1F5007F96
:1018400000D100BF13880B400BB1012000E0002045
:10185000704701F40072B2F5007F00D100BFCA43A7
:101860000280704770B50246002400230025002046
:1018700040F66A16B14200D100BFC1F3421501F033
:101880001F03012606FA03F3012D02D19689334086
:1018900006E0022D02D1168A334001E0968A3340D9
:1018A0000C12012606FA04F41688344013B10CB168
:1018B000012000E0002070BD10B50022002340F69A
:1018C0006A14A14200D100BF0A1201249440A3B2BD
:1018D000DC43048010BD000000380140004400409B
:1018E00000480040004C0040005000403EB5002041
:1018F000FA490860FA48FB4908600020FA49086084
:1019000002F0C1FD02F0BAFFF849002002F0D0FE5B
:1019100002F0F7FE9620F6490860002420E0F54A20
:1019200002EB8401F44A02EB840002F03AFFF14832
:1019300050F82400EB490968884204D2ED4850F879
:101940002400E8490860EB4850F82400E64909689B
:10195000884204D9E74850F82400E3490860641C31
:10196000E34800688442DADBE24850F82400E349A7
:101970000860E348E349E44AE44BCDE900210290E2
:10198000DC4ADB480168DC4803F076F83EBDFEB572
:1019900000250024D248D34908600020D2490860BD
:1019A000322428E0D34850F82410A4F13200D14A60
:1019B00042F82010D04850F82410A4F13200CE4A4A
:1019C00042F82010CB4850F82400C64909688842E4
:1019D00004D2C84850F82400C2490860C54850F8ED
:1019E0002400C1490968884204D9C24850F824003B
:1019F000BD490860641C962CD4DB642471E0601E31
:101A0000BC4951F82000BD490860BA4A02EB840184
:101A1000B94A02EB840002F0C4FEB64850F8240034
:101A2000B6490968884232D9B24951F82410B34AFC
:101A30001268881A03F023FB0646AB490968A94AD5
:101A40001268881A03F01BFB07463946304603F03C
:101A50005DFA0646AE49304603F026FA06469F4830
:101A6000006803F00CFB0746314603F017FA064600
:101A70000021304603F054FB03D200209749086050
:101A80002EE0304603F000FB9449086028E09949B5
:101A900051F82410994A1268501A03F0F0FA0646D9
:101AA000914909688F4A1268881A03F0E8FA0746D4
:101AB0003946304603F02AFA06469549304603F087
:101AC000F3F90646304603F0DFFA84490968084412
:101AD0008249086008460068FF2801D9FF20086095
:101AE000641C962C8BDB86488649874A874BCDE958
:101AF000002102907F4A7E4801687F4802F0BCFFC7
:101B0000844801780078401C824A1070082976DDEC
:101B100000201146087002F0FBF87F4908807848E1
:101B2000007801286CD177480068962868DA7548F3
:101B300000683C2864DD0020784908607848006827
:101B4000042819D1012077490860002074490860F1
:101B50000C240EE0744850F824000A3069490968E2
:101B6000884205DD00206F49086004206C49086048
:101B7000641C102CEEDB04E069480068401C6849D6
:101B800008606848006800287BD1002406E06649A8
:101B9000601C51F8200041F82400641C0F2CF6DB77
:101BA000584800686049C86360480068102804DA33
:101BB0005E480068401C5D49086000205C49086080
:101BC0005A480068022803DA00205A49086058E0A1
:101BD00056480068042814DA0E2408E0524850F8E9
:101BE000240053490968084451490860641C102CBA
:101BF000F4DB4F48006840104E49086041E0D5E1F1
:101C000043E04A480068082812DA0C2408E04648F5
:101C100050F8240046490968084445490860641C96
:101C2000102CF4DB4248006880104249086028E02C
:101C30003E480068102812DA082408E03A4850F8B4
:101C400024003B490968084439490860641C102C89
:101C5000F4DB37480068C0103649086011E0002402
:101C600008E0314850F824003149096808443049F7
:101C70000860641C102CF4DB2D48006800112D490D
:101C8000086000202749086011E00020244908600E
:101C900022480068042805D100202649086023490D
:101CA000086004E01D480068401C1C490860164894
:101CB000007801287ED11548006850287ADD002080
:101CC0001D4908601D48006804284DD101201C49A9
:101CD00008600020194908600C2442E094000020AC
:101CE000FFFF0300880000208C000020550000202A
:101CF000440000208C0A00203408002090000020BE
:101D000054000020500000204C000020480000201B
:101D100000007F4398000020400000208400002045
:101D20007000002078000020E40C00206C000020EF
:101D3000580000205C00002080000020740000207B
:101D40007C000020FE4850F824000A38FD4909684C
:101D5000884205DA0020FC4908600420FB4908603D
:101D6000641C102CEEDB04E0F8480068401CF749C6
:101D70000860F548006800287BD1002406E0F0499F
:101D8000601C51F8200041F82400641C0F2CF6DB85
:101D9000EC480068EA49C863ED480068102804DA96
:101DA000EB480068401CEA4908600020E9490860E7
:101DB000E74800E061E00068022803DA0020E64915
:101DC000086056E0E2480068042812DA0E2408E0B1
:101DD000DB4850F82400DF4909680844DD49086001
:101DE000641C102CF4DBDB4800684010DA49086002
:101DF0003FE0D7480068082812DA0C2408E0D048F1
:101E000050F82400D34909680844D2490860641C8A
:101E1000102CF4DBCF4800688010CF49086028E020
:101E2000CB480068102812DA082408E0C44850F8AB
:101E30002400C84909680844C6490860641C102C7D
:101E4000F4DBC4480068C010C349086011E00024F6
:101E500008E0BB4850F82400BE4909680844BD4961
:101E60000860641C102CF4DBBA4800680011BA4901
:101E700008600020B449086011E00020B349086000
:101E8000B6480068042805D10020B3490860B0496D
:101E9000086004E0B1480068401CB0490860B048E0
:101EA00000684FF47A7190FBF1F201FB120064219B
:101EB00090FBF1F03030C7B2002029466A1CD5B241
:101EC000C9060090080E02233A46062101F09DF94A
:101ED000A3480068642190FBF1F201FB12000A2183
:101EE00090FBF1F03030C7B2002029466A1CD5B211
:101EF000C9060090080E02233A46062101F085F932
:101F0000974800680A2190FBF1F201FB1200303083
:101F1000C7B2002029466A1CD5B2C9060090080E37
:101F200002233A46062101F070F906258A48006826
:101F30004FF47A7190FBF1F201FB1200642190FBE7
:101F4000F1F03030C7B200202A466D1C0090D0005E
:101F500002233A46062101F058F97F4800686421BF
:101F600090FBF1F201FB12000A2190FBF1F03030FE
:101F7000C7B200202A466D1C0090D00002233A46CA
:101F8000062101F042F9744800680A2190FBF1F241
:101F900001FB12003030C7B200202A466D1C0090B1
:101FA000D00002233A46062101F02FF9FEBDF8B514
:101FB000002500246B48007810B96B4801F0E3FC61
:101FC0006948C08800F5FA6086B24FF4C87196FB84
:101FD000F1F201FB126161B1642196FBF1F201FBA8
:101FE000126151B1F11706EB91718910A6EB8101D5
:101FF00019B901205D49087002E000205B490870B2
:10200000584800782146621CD4B2C9060090080ED8
:1020100002233222002101F0F8F8524800782146CC
:10202000621CD4B2C9060090080E0223302200219F
:1020300001F0EBF84C48C0880A2190FBF1F03030F9
:10204000C7B2484800782146621CD4B2C906009045
:10205000080E02233A46002101F0D7F84248C08812
:102060000A2190FBF1F201FB12003030C7B23D486B
:1020700000782146621CD4B2C9060090080E0223E3
:102080003A46002101F0C1F800202146621CD4B27A
:10209000C9060090080E02232D22002101F0B5F898
:1020A000314800790A2190FBF1F03030C7B22D4859
:1020B0000078401EC0B22146621CD4B2C90600900E
:1020C000080E02233A46002101F09FF826480079C5
:1020D0000A2190FBF1F201FB12003030C7B2214817
:1020E0000078401EC0B22146621CD4B2C9060090DE
:1020F000080E02233A46002101F087F8002021460D
:10210000621CD4B2C9060090080E02232D220021C1
:1021100001F07BF81448C0780A2190FBF1F03030D0
:10212000C7B210480078801EC0B22146621CD4B2EB
:10213000C9060090080E02233A46002118E000006C
:10214000240D0020480000207C00002074000020A6
:102150006800002060000020640000208000002053
:102160005C000020280000206403002029000020DB
:1021700001F04BF8FE48C0780A2190FBF1F201FB18
:1021800012003030C7B2FB480078801EC0B2214632
:10219000621CD4B2C9060090080E02233A46002100
:1021A00001F033F8F3490978C91ECBB2582101EB8D
:1021B0000511C8B20022114601F020F9EC4840791F
:1021C000082861D2DFE800F06004111E2B38465366
:1021D000E8490978C91ECBB2682101EB0511C8B2E4
:1021E0000122002101F00AF94EE0E2490978C91EF6
:1021F000CBB2682101EB0511C8B20222002101F027
:10220000FDF841E0DB490978C91ECBB2682101EB3A
:102210000511C8B20322002101F0F0F834E0D549DD
:102220000978C91ECBB2682101EB0511C8B204229E
:10223000002101F0E3F827E0CE490978C91ECBB2AE
:10224000691DCAB2682101EB0511C8B2002101F075
:10225000D5F819E0C7490978C91ECBB2682101EB4E
:102260000511C8B20622002101F0C8F80CE0C149EE
:102270000978C91ECBB2682101EB0511C8B207224B
:10228000002101F0BBF800BF00BF0024B8488078EF
:102290000A2190FBF1F03030C7B2B6480078001F39
:1022A000C0B22246641C0090D00002233A46194670
:1022B00000F0ABFFAE4880780A2190FBF1F201FB01
:1022C00012003030C7B2AB480078001FC0B22246BF
:1022D000641C0090D00002233A46194600F095FF96
:1022E00000202246641C0090D00002233A221946A6
:1022F00000F08BFF9E4840780A2190FBF1F03030CF
:10230000C7B29C480078401FC0B22246641C0090AF
:10231000D00002233A46194600F077FF94484078EF
:102320000A2190FBF1F201FB12003030C7B2914854
:102330000078401FC0B22246641C0090D0000223E7
:102340003A46194600F061FF00202246641CD1067F
:102350000090080E02233A22194600F056FF8448E6
:1023600000780A2190FBF1F03030C7B28148007844
:10237000801FC0B22246641CD1060090080E0223C2
:102380003A46194600F041FF794800780A2190FB4F
:10239000F1F201FB12003030C7B276480078801F9E
:1023A000C0B22146621CD4B2C9060090080E0223B6
:1023B0003A46194600F029FFF8BD38B50A2401F065
:1023C000A7FC6D4908800846B0F90000642190FB25
:1023D000F1F03030C5B200202246641C0090D000DD
:1023E00002232A46194600F010FF6348B0F90000A6
:1023F000642190FBF1F201FB12000A2190FBF1F045
:102400003030C5B200202246641C0090D000022368
:102410002A46194600F0F9FE00202246641CD10627
:102420000090080E02232E22194600F0EEFE5248BC
:10243000B0F900000A2190FBF1F201FB12003030EC
:10244000C5B200202246641CD1060090080E02236B
:102450002A46194600F0D9FE00202146621CD4B25B
:10246000C9060090080E02234322194600F0CDFE53
:1024700038BD1CB505226946404801F0ABFE00207E
:102480008DF805003EA1684602F0A4FC50B9052273
:102490003BA13A4801F0AFFE01223B4937481030DA
:1024A00001F0A9FE642001F05EF8012236493348AC
:1024B000103001F08FFE344800884EF660218842CB
:1024C00003DC31480088002802DA00202E49088009
:1024D0001CBD38B50B240A232C4A2D492D4801F088
:1024E0000EFE2C4800682C49086000212A4800682C
:1024F00002F020FE2BD229492748006802F006FD91
:102500000546274902F016FE21D226480078012808
:102510001DD10020234908701B4800884EF6602119
:10252000884204DA18480088401C174908801E4871
:10253000008815490988884209D0134800881A493B
:102540000880012210490D48103001F054FE00218E
:102550001148006802F0E4FD32D20F48006880F0B4
:1025600000400D4908600D490B4800681EE000005E
:1025700064030020280000204000002010F0000824
:10258000464459445A0000003E0000203400002018
:10259000300000202C0000203800002000002041E6
:1025A0000000A0403C0000209A00002002F0AEFC99
:1025B0000546F94902F0BEFD02D80120F74908702E
:1025C000F748008842F20F71884274DDF4480088B1
:1025D000491C90FBF1F03030C5B200202146621C4E
:1025E00094B2C9060090080E02232A46062100F084
:1025F0000CFEEB48008842F2107190FBF1F201FBF7
:1026000012004FF47A7190FBF1F03030C5B2002027
:102610002146621C94B2C9060090080E02232A4685
:10262000062100F0F2FDDE4800884FF47A7190FB3D
:10263000F1F201FB1200642190FBF1F03030C5B2E1
:1026400000202146621C94B2C9060090080E0223A5
:102650002A46062100F0D9FDD1480088642190FB6C
:10266000F1F201FB12000A2190FBF1F03030C5B20B
:1026700000202146621C94B2C9060090080E022375
:102680002A46062100F0C1FDC54800880A2190FBBA
:10269000F1F201FB12003030C5B200202146621C6D
:1026A00094B2C9060090080E02232A46062100F0C3
:1026B000ACFD70E1FFE7BA480088B0F57A7F6CDBCB
:1026C00000202146621C94B2C9060090080E022325
:1026D0002022062100F099FDB148008842F21071D5
:1026E00090FBF1F201FB12004FF47A7190FBF1F0D4
:1026F0003030C5B200202146621C94B2C906009059
:10270000080E02232A46062100F07FFDA448008817
:102710004FF47A7190FBF1F201FB1200642190FBFF
:10272000F1F03030C5B200202146621C94B2C906D7
:102730000090080E02232A46062100F066FD984804
:102740000088642190FBF1F201FB12000A2190FB4A
:10275000F1F03030C5B200202146621C94B2C906A7
:102760000090080E02232A46062100F04EFD8C48F8
:1027700000880A2190FBF1F201FB12003030C5B253
:1027800000202146621C94B2C9060090080E022364
:102790002A46062100F039FDFDE0814800886328C3
:1027A0005EDD00202146621C94B2C9060090080E2E
:1027B00002232022062100F028FD00202146621C71
:1027C00094B2C9060090080E02232022062100F0D0
:1027D0001CFD734800884FF47A7190FBF1F201FB05
:1027E0001200642190FBF1F03030C5B20020214688
:1027F000621C94B2C9060090080E02232A460621E4
:1028000000F003FD66480088642190FBF1F201FBB3
:1028100012000A2190FBF1F03030C5B200202146B1
:10282000621C94B2C9060090080E02232A460621B3
:1028300000F0EBFC5A4800880A2190FBF1F201FB02
:1028400012003030C5B200202146621C94B2C90685
:102850000090080E02232A46062100F0D6FC9AE0DA
:102860004F480088092851DD00202146621C94B29F
:10287000C9060090080E02232022062100F0C5FCA4
:1028800000202146621C94B2C9060090080E022363
:102890002022062100F0B9FC41480088642190FB09
:1028A000F1F201FB12000A2190FBF1F03030C5B2C9
:1028B00000202146621C94B2C9060090080E022333
:1028C0002A46062100F0A1FC354800880A2190FB29
:1028D000F1F201FB12003030C5B200202146621C2B
:1028E00094B2C9060090080E02232A46062100F081
:1028F0008CFC00202146621C94B2C9060090080E90
:1029000002232022062100F080FC44E00020214622
:10291000621C94B2C9060090080E022320220621F0
:1029200000F073FC00202146621C94B2C90600909E
:10293000080E02232022062100F067FC18480088B8
:102940000A2190FBF1F201FB12003030C5B20020E9
:102950002146621C94B2C9060090080E02232A4642
:10296000062100F052FC00202146621C94B2C906E8
:102970000090080E02232022062100F046FC0020D1
:102980002146621C94B2C9060090080E0223202240
:10299000062100F03AFC38BD0000A0403C000020B9
:1029A0003E00002010B50024002000F02AFE04465E
:1029B000012C0AD1F8480078401CF74908700846F5
:1029C0000078072801DD00200870022C7ED1F24833
:1029D000007801280DD1F148C088401CEF49C8801B
:1029E0000846C088642801D10020C880EB4800F068
:1029F00047FFE948007802283CD1E8480079401CAC
:102A0000E6490871084600790D2801D101200871B6
:102A1000E248007904280BD0E0480079062807D066
:102A2000DE480079092803D0DC4800790B2807D15B
:102A3000DA48C0781E281ADD0120D849C87016E08F
:102A4000D6480079022812D1D5480078012807D14C
:102A5000D248C0781D280ADD0120D049C87006E0A0
:102A6000CE48C0781C2802DD0120CC49C870CB4874
:102A700000F006FFC848007803284CD1C748C0784A
:102A8000401CC649C87008460079012817D008467E
:102A90000079032813D00846007905280FD008468E
:102AA000007907280BD008460079082807D0084687
:102AB00000790A2803D0084600790C2809D1B748C4
:102AC000C078202824D10120B44900E06BE0C87010
:102AD0001EE0B2480079022813D1B14800780128DD
:102AE00007D1AE48C0781E2812D10120AB49C8706A
:102AF0000EE0AA48C0781D280AD10120A749C87055
:102B000006E0A648C0781F2802D10120A349C8705A
:102B1000A24800F0B5FEA048007804280DD19F48D7
:102B20004079401C9D49487108464079082801D1E8
:102B300001204871994800F0A3FE974800780528C5
:102B40000DD196488078401C94498870084680785A
:102B5000182801D100208870904800F091FE8E481E
:102B6000007806280DD18D484078401C8B4948706C
:102B7000084640783C2801D100204870874800F082
:102B80007FFE8548007807280DD184480078401CD6
:102B900082490870084600783C2801D1002008705E
:102BA0007E4800F06DFE032C7ED17B480078012822
:102BB0000DD17A48C08810B964207849C880774818
:102BC000C088401E7549C880084600F059FE72480A
:102BD000007802283DD171480079012802D10D20EA
:102BE0006E4908716D480079401E6C4908710846AD
:102BF000007904280BD008460079062807D008463B
:102C00000079092803D0084600790B2807D16348CA
:102C1000C0781E281ADD01206049C87016E05F48A0
:102C20000079022812D15E480078012807D15B485C
:102C3000C0781D280ADD01205849C87006E05748B1
:102C4000C0781C2802DD01205449C870534800F0A8
:102C500017FE51480078032848D15048C078401EDC
:102C60004E49C87008460079012817D008460079F7
:102C7000032813D00846007905280FD008460079AC
:102C800007280BD008460079082807D008460079A5
:102C90000A2803D0084600790C2808D13F48C0789C
:102CA00008BB1F203D4900E069E0C8701BE03B48BD
:102CB0000079022811D13A480078012806D1374816
:102CC000C07880B91D203549C8700CE03348C07801
:102CD00048B91C203149C87005E03048C07810B9A7
:102CE0001E202E49C8702D4800F0CAFD2A480078E1
:102CF00004280ED129484079012802D1082027490B
:102D0000487126484079401E24494871084600F021
:102D1000B7FD2148007805280DD12048807810B9EA
:102D200018201E4988701D488078401E1B498870F5
:102D3000084600F0A5FD1848007806280DD1174870
:102D4000407810B93C201549487014484078401E1E
:102D500012494870084600F093FD0F480078072894
:102D60000DD10E48007810B93C200C4908700B4872
:102D70000078401E09490870084600F081FD042CC7
:102D800009D10020074908800122074801F033FAE1
:102D9000322000F0E8FB10BD280000206403002072
:102DA000290000203E00002020F0000870B500241B
:102DB0006348007863490978884240D060480078C9
:102DC000604908706048007808B9012000E00020E0
:102DD0005D49087008460078012830D15B48B0F999
:102DE000000002F043F90546594902F08FF8044605
:102DF000204602F081F905462A460B4655A002F00E
:102E000033FC0A2000F0AFFB5648016856A002F0E0
:102E10002BFC0A2000F0A7FB5648016856A002F0E0
:102E200023FC0A2000F09FFB5648018856A002F0C0
:102E30001BFC0A2000F097FB56A002F015FC70BDA9
:102E400000F054FB00F0B8F800F03AF900F0C4FBD1
:102E5000C82000F088FBFFF70CFB00F0BBF900F086
:102E600038FF374800F038FE642000F07CFB34481F
:102E700000F089FD00240AE004F10801CAB221072C
:102E8000080E0023022100F0B9FA601CC4B2082C1D
:102E9000F2DB4FF47A7000F066FB4FF47A7000F0CA
:102EA00062FB00F097F900240AE004F11001CAB2B5
:102EB0002107080E0023042100F0A0FA601CC4B210
:102EC000022CF2DB00240CE004F11201CAB2302122
:102ED00001EB0411C8B20023042100F08FFA601C3A
:102EE000C4B2022CF0DB00240CE004F11401CAB2DD
:102EF0005F2101EB0411C8B20023042100F07EFA27
:102F0000601CC4B2022CF0DB00F06CFF01F071F821
:102F1000FEF7ECFC4FF4165001F0F7F90EE0FFF766
:102F200041FDFFF744F81C48007828B9FFF745FA3F
:102F3000FFF7CFFAFEF72BFDFFF738FFEFE70000B2
:102F4000640300209C0000209D0000204000002021
:102F500000002041CCE5CEC23A25342E3166432014
:102F6000200D0A005C000020D0C4C2CA3A256420AB
:102F7000200D0A0064000020D1AAD1F53A25642072
:102F8000200D0A003E000020B2BDCAFD3A25642093
:102F9000202020200D0A000028000020704700BFDC
:102FA000FEE700BFFEE700BFFEE700BFFEE7704799
:102FB000704770477047000000B585B00121480593
:102FC000FEF739FA01210820FEF728FAC020ADF8F3
:102FD000000003208DF802001C208DF803006946D4
:102FE000FE48FDF75DFDFE48FDF7A8FE0020ADF8A8
:102FF00008004BF6FF70ADF80A003020ADF80C0069
:103000004FF48060ADF80E000001ADF81000F548F7
:1030100001900121F248FDF728FF01A9F048FDF7D2
:10302000A6FE05B000BD70B504460D4600BF4FF4C6
:103030000031EB48FEF740F80028F8D10121E848BC
:10304000FDF737FF00BFE849E548FEF713F8002811
:10305000F9D000227821E248FDF781FF00BFE34963
:10306000DF48FEF707F80028F9D02146DC48FDF7D5
:1030700070FF00BFDD49891CD948FDF7FBFF002820
:10308000F8D02946D648FDF764FF00BFD749891C10
:10309000D348FDF7EFFF0028F8D00121D048FDF715
:1030A00014FF70BD10B5044621460020FFF7BBFF9A
:1030B00010BD10B5044621464020FFF7B4FF10BDF7
:1030C00010B5642000F04FFAAE20FFF7EBFF202090
:1030D000FFF7E8FF1020FFF7E5FFB020FFF7E2FF62
:1030E000C820FFF7DFFF0020FFF7DCFF1020FFF70D
:1030F000D9FF4020FFF7D6FF8120FFF7D3FFFF2045
:10310000FFF7D0FFA120FFF7CDFFA620FFF7CAFFF2
:10311000A820FFF7C7FF3F20FFF7C4FFA420FFF759
:10312000C1FFD320FFF7BEFF0020FFF7BBFFD52074
:10313000FFF7B8FFF020FFF7B5FFD920FFF7B2FF88
:103140002220FFF7AFFFDA20FFF7ACFF1220FFF7D6
:10315000A9FFDB20FFF7A6FF2020FFF7A3FF8D20AC
:10316000FFF7A0FF1420FFF79DFFAF20FFF79AFFA6
:1031700010BD70B504460D4605F1B001C8B2FFF7A9
:1031800091FF102141EA1410FFF78CFF04F00F01AA
:1031900041F00100FFF786FF70BD70B506460024C0
:1031A00015E004F1B001C8B2FFF77CFF0020FFF783
:1031B00079FF1020FFF776FF002504E03046FFF787
:1031C00078FF681CC5B2802DF8DB601CC4B2082CE7
:1031D000E7DB70BD10B50020FFF7DFFF10BD10B5B5
:1031E0008D20FFF75FFF1420FFF75CFFAF20FFF794
:1031F00059FF10BD10B58D20FFF754FF1020FFF7C9
:1032000051FFAE20FFF74EFF10BD2DE9F0470746F6
:103210000E4691469A46DDF8208000250024A9F14B
:103220002000C5B2BAF1020F40D1782F02DD00278D
:10323000701CC6B231463846FFF79BFF002413E0EE
:10324000B8F1010F08D104EB0511694A515CC9437B
:10325000C8B2FFF72EFF05E004EB0511644A505C8D
:10326000FFF727FF601CC4B2082CE9DB701CC1B259
:103270003846FFF77EFF002415E0B8F1010F09D1B1
:1032800004EB051108315A4A515CC943C8B2FFF733
:1032900010FF06E004EB05110831554A505CFFF7BA
:1032A00008FF601CC4B2082CE7DB24E07E2F02DD9F
:1032B0000027701CC6B231463846FFF75AFF00247B
:1032C00017E0B8F1010F0AD105EB4501494A02EBBD
:1032D0004101095DC943C8B2FFF7EBFE07E005EB0A
:1032E0004501444A02EB4101085DFFF7E2FE601C24
:1032F000C4B2062CE5DBBDE8F0872DE9F0470646B1
:10330000894617469A464FF0000800240025BAF176
:10331000010F03D0BAF1020F5ED125E020E0785D05
:10332000203800F0FF087E2E04DD002609F10100A0
:1033300000F0FF0949463046FFF71BFF002409E073
:1033400008EB48012B4A02EB4101085DFFF7B1FE93
:10335000601CC4B2062CF3DBB01DC6B2681CC5B23B
:10336000785D0028DBD137E032E0785D203800F06E
:10337000FF08782E04DD002609F1010000F0FF09A6
:1033800049463046FFF7F5FE002407E004EB08113C
:10339000174A505CFFF78DFE601CC4B2082CF5DBA9
:1033A00009F10100C1B23046FFF7E3FE002408E056
:1033B00004EB081108310E4A505CFFF77AFE601CDE
:1033C000C4B2082CF4DB06F10800C6B2681CC5B212
:1033D000785D0028C9D100BF00BF0DE0000C01409E
:1033E00000540040801A060001000300820007001C
:1033F000626100083A5F0008BDE8F0872DE9F047F8
:1034000081460F4690461E4600254FEA481439462D
:103410004846FFF7AEFE00BF0FE0012E06D132494D
:10342000095DC943C8B2FFF744FE03E02E49085DB9
:10343000FFF73FFE641C681CC5B2102DEDDB781C45
:10344000C1B24846FFF795FE00250FE0012E06D1D8
:103450002549095DC943C8B2FFF72BFE03E02249A5
:10346000085DFFF726FE641C681CC5B2102DEDDB5D
:10347000BDE8F0872DE9F05F06460F4690461C46F2
:10348000DDF828A04FF0000BE11704EB5171C910D3
:10349000A4EBC10131B92046E11704EB5171C1F32E
:1034A000C70506E02046E11704EB5171C910491C1D
:1034B000CDB23D4614E029463046FFF75AFEB146EC
:1034C0000AE059460BF1010B1AF80100FFF7F1FD74
:1034D00009F1010000F0FF09C145F2DB681CC5B22B
:1034E000A542E8DBBDE8F09F9E00002010B56FF01C
:1034F0000400FCF778FF344800683449B0FBF1F071
:10350000334908700846007800EB4001C1EBC01059
:103510004FF6FF7101EAC0002E49088010BD014638
:103520002B4A12784A434FF0E0235A6100229A61F5
:103530001A46126942F001021A6100BF4FF0E02200
:10354000106900F001021AB100F48032002AF5D0AF
:103550004FF0E022126922F001024FF0E0231A61DD
:1035600000229A61704701461A4A12884A434FF076
:10357000E0235A6100229A611A46126942F0010260
:103580001A6100BF4FF0E022106900F001021AB189
:1035900000F48032002AF5D04FF0E022126922F0C8
:1035A00001024FF0E0231A6100229A61704730B5A2
:1035B0000446002505E04FF47A70FFF7D4FF681C3D
:1035C000C5B2A542F7D330BD0000002000127A003A
:1035D0005E0300206003002008B501210820FDF7EC
:1035E0001DFF01213948FDF72CFB4FF47040ADF869
:1035F000000048208DF8030069463548FDF750FA71
:1036000008BD10B5044614B1012032490870314894
:10361000007800283DD04FF480512D48FDF7D3FAB3
:1036200088B14FF400512A48FDF7CDFA58B14FF454
:1036300080412748FDF7C7FA28B14FF400412448DC
:10364000FDF7C1FA28BB0A20FFF78DFF00202149B2
:1036500008704FF480511E48FDF7B5FA08B90120F3
:1036600010BD4FF400511A48FDF7ADFA08B9022019
:10367000F6E74FF480411648FDF7A5FA08B9032094
:10368000EEE74FF400411248FDF79DFAE0B904203F
:10369000E6E74FF480510E48FDF795FA012813D163
:1036A00041030B48FDF78FFA01280DD1810308482B
:1036B000FDF789FA012807D1C1030548FDF783FA10
:1036C000012801D1034908700020C9E70002300039
:1036D000000C01406203002008B54FF48040ADF8B3
:1036E000000010208DF8030003208DF802006946C9
:1036F000F848FDF7D5F908BD08B54FF48040ADF89E
:10370000000048208DF803006946F248FDF7C8F92B
:1037100008BD08B501211020FDF780FE4FF4604080
:10372000ADF8000010208DF8030003208DF8020092
:103730006946E848FDF7B4F94FF46041E548FDF704
:103740005EFA08BD70B504460025FFF7C5FF00BF4F
:1037500020E04FF40051DF48FDF751FA04F001007A
:1037600028B14FF48041DB48FDF747FA04E04FF4FD
:103770008041D848FDF743FA0220FFF7D0FE4FF40E
:103780000051D448FDF739FA0220FFF7C8FE641053
:10379000681CC5B2082DDCDB70BD70B505460C4653
:1037A0004FF40041CB48FDF72AFA4FF40051C948C5
:1037B000FDF725FA0520FFF7B2FE4FF40041C5489A
:1037C000FDF71BFA0520FFF7AAFE2846FFF7BAFF10
:1037D0002046FFF7B7FF4FF40041BE48FDF70FFA50
:1037E0004FF40051BB48FDF70AFA70BD70B50646AC
:1037F000002500244FF40041B648FDF700FA4FF4CD
:103800000051B448FDF7FBF90520FFF788FE4FF49F
:103810000041B048FDF7F1F90520FFF780FE304682
:10382000FFF790FFFFF768FF00BF1BE04FF4005168
:10383000A848FDF7E4F90220FFF771FE64104FF489
:103840008041A448FDF7BFF9012801D144F080046C
:103850004FF400519F48FDF7D0F90220FFF75FFEBB
:10386000681CC5B2082DE1DB4FF400519948FDF703
:10387000C6F94FF400419748FDF7C1F9204670BDE5
:1038800070B5044600218E20FFF787FF20780A21BB
:1038900090FBF1F201FB120120780A2290FBF2F07A
:1038A00001EB0010C5B229468020FFF776FF607853
:1038B0000A2190FBF1F201FB120160780A2290FBD1
:1038C000F2F001EB0010C5B229468220FFF765FF38
:1038D000A0780A2190FBF1F201FB1201A0780A22E4
:1038E00090FBF2F001EB0010C5B229468420FFF7EF
:1038F00054FFE0780A2190FBF1F201FB1201E0781D
:103900000A2290FBF2F001EB0010C5B22946862096
:10391000FFF743FF20790A2190FBF1F201FB12012E
:1039200020790A2290FBF2F001EB0010C5B2294683
:103930008820FFF732FF60790A2190FBF1F201FB4A
:10394000120160790A2290FBF2F001EB0010C5B27F
:1039500029468A20FFF721FFE0880A2190FBF1F237
:1039600001FB1201E0880A2290FBF2F001EB00104B
:10397000C5B229468C20FFF710FF80218E20FFF76B
:103980000CFF002070BD2DE9F04104468120FFF7B7
:103990002DFF0546C01705EB10700011A5EB0017B1
:1039A0008120FFF723FF0646C01706EB10700011B9
:1039B00000EB800007EB400020708320FFF716FF2C
:1039C0000546C01705EB10700011A5EB001783200A
:1039D000FFF70CFF0646C01706EB1070001100EB56
:1039E000800007EB400060708520FFF7FFFE054672
:1039F000C01705EB10700011A5EB00178520FFF72D
:103A0000F5FE0646C01706EB1070001100EB8000B3
:103A100007EB4000A0708720FFF7E8FE0546C017BF
:103A200005EB10700011A5EB00178720FFF7DEFEF5
:103A30000646C01706EB1070001100EB800007EB84
:103A40004000E0708920FFF7D1FE0546C01705EB66
:103A500010700011A5EB00178920FFF7C7FE06467E
:103A6000C01706EB1070001100EB800007EB400060
:103A700020718B20FFF7BAFE0546C01705EB1070CA
:103A80000011A5EB00178B20FFF7B0FE0646C0170C
:103A900006EB1070001100EB800007EB4000607136
:103AA0008D20FFF7A3FE0546C01705EB107000112F
:103AB000A5EB00178D20FFF799FE0646C01706EB11
:103AC0001070001100EB800007EB4000E080002048
:103AD000BDE8F081001001402DE9F0410646FFF7F6
:103AE00018FEC120FFF782FE0446C01704EB1070D9
:103AF0000011A4EB0017C120FFF778FE0546C017A0
:103B000005EB1070001100EB800007EB400001286E
:103B100002D10020BDE8F08100218E20FFF73DFE9C
:103B20000121C020FFF739FE80218E20FFF735FEEE
:103B30003046FFF7A5FE0020ECE7000010B59648E0
:103B4000006820F47040944908600846006840F41A
:103B50004050086000209149086040F2EE20FFF7D5
:103B6000DEFC01208E49C1F8AC010F20FFF7D7FC25
:103B700010BD10B500248848006820F470408649C4
:103B800008600846006840F40040086004E0601CDB
:103B9000C4B20120FFF7C3FC80488038006808B138
:103BA000C82CF4DBC82C01DB012010BD002404E08C
:103BB000601CC4B20120FFF7B2FC7848803800686E
:103BC00008B9F02CF4DBF02C01DB0120EDE700203C
:103BD000EBE710B57048006820F470406E4908604B
:103BE0000846006840F44050086000206B490860B7
:103BF0000220FFF794FC01206949C1F8AC01664836
:103C0000006820F47040644908600846006840F489
:103C1000004008600C20FFF782FC60488038006894
:103C200008B1012400E000243220FFF778FC204690
:103C300010BD70B50026012508E0FFF7CAFF044655
:103C4000E00140EA6600C6B2681CC5B2082DF4DD8A
:103C5000304670BD70B504464F48006820F470408F
:103C60004D4908600846006840F44050086001254E
:103C700020E004F0010664106EB10020474908609E
:103C80000220FFF74CFC01204549C1F8AC013C2063
:103C9000FFF745FC0CE00020404908603C20FFF79E
:103CA0003EFC01203E49C1F8AC010220FFF737FC81
:103CB000681CC5B2082DDCDD70BD10B5FFF73EFFF6
:103CC000FFF757FFCC20FFF7C5FF4420FFF7C2FFE7
:103CD00010BD08B501210420FDF7A0FB4FF40060E2
:103CE000ADF8000010208DF8030003208DF80200CD
:103CF00069462948001FFCF7D3FE4FF400612648AF
:103D0000001FFCF77AFFFFF719FFFFF732FF08BD2E
:103D10002DE9F84FFFF7D1FFFFF710FFFFF729FF5D
:103D2000CC20FFF797FFBE20FFF794FFFFF781FF3E
:103D30008346FFF77EFF0446072C08DDE043C4B24C
:103D40006FEA0B0000F0FF0B4FF0000A01E04FF0AC
:103D5000010AA1464FEA09200FFA80F909EB0B008E
:103D60000FFA80F9484601F081F9009001F0C4F99A
:103D7000074600220B4B01F007F9054601F09DF9BB
:103D80000FFA80F9BAF1000F02D04846BDE8F88F6B
:103D9000C9F1000000B2F9E704080140AC0121427A
:103DA000000021420000E43F08B58020ADF800008B
:103DB00003208DF8020010208DF8030069467E482C
:103DC000FCF76EFE08BD08B58020ADF800000320AA
:103DD0008DF8020048208DF8030069467648FCF70C
:103DE0005FFE08BD08B501210420FDF717FBC020C8
:103DF000ADF8000010208DF8030003208DF80200BC
:103E000069466D48FCF74CFEC0216B48FCF7F5FE97
:103E100008BD10B5FFF7C8FF012068490860684970
:103E2000C1F898010520FFF77AFB0020634908607C
:103E30000520FFF774FB00206149C1F8980110BD0F
:103E400010B5FFF7B1FF00205C49091F08605C490D
:103E5000C1F89C010520FFF762FB01205749091FAB
:103E600008605749C1F89C010520FFF758FB10BDB9
:103E700010B500205149091F0860FFF795FF002089
:103E80004F49C1F89C010220FFF749FB01204B4933
:103E9000091F08600520FFF742FB00204849C1F8D0
:103EA000980110BD10B500204449091F0860FFF7B4
:103EB0007BFF01204249C1F89C010220FFF72FFB44
:103EC00001203E49091F08600220FFF728FB00205F
:103ED0003B49C1F8980110BD10B50024FFF773FFEE
:103EE000012036490860FFF71AFB01203449C1F868
:103EF0009801FFF714FB07E0601CC4B2FA2C03DD45
:103F0000FFF79EFF012010BD2C4880380068002874
:103F1000F2D12A49091F086000BFF4E770B50446D2
:103F20000025FFF741FF00202449091F086000BF5A
:103F300014E0E009214908606006040E01202049D0
:103F4000C1F898010220FFF7EAFA00201B49091F77
:103F500008600220FFF7E3FA681CC5B2082DE8DB11
:103F600070BD70B5054600260024FFF72CFF00BF8A
:103F700017E000201149091F08600220FFF7CFFA5F
:103F800001200F49C1F898016006040E0B488038E3
:103F9000006808B1601CC4B20120FFF7C0FA701CB1
:103FA000C6B2082EE5DB15B9FFF77CFF01E0FFF78D
:103FB0005FFF204670BD0000000801409C012142C7
:103FC0000000214270B505460C46FFF722FFA620EF
:103FD000FFF7A4FFFFF780FF2846FFF79FFFFFF7DB
:103FE0007BFF2046FFF79AFFFFF776FFFFF728FFDA
:103FF00070BD10B50B213120FFF7E4FF0B212C2001
:10400000FFF7E0FF08212D20FFF7DCFF80212E20A5
:10401000FFF7D8FF00211E20FFF7D4FF00211F204B
:10402000FFF7D0FF05212020FFF7CCFF10BD70B5B2
:1040300004460025FFF7EDFEA620FFF76FFFFFF710
:104040004BFF05462046FFF769FFFFF745FF054692
:10405000FFF7DFFEA720FFF761FFFFF73DFF0546F3
:104060000020FFF77EFF0546FFF7EAFE284670BDF9
:104070002DE9FC4105460E461746FFF7CAFEA6206D
:10408000FFF74CFFFFF728FF3220FFF747FFFFF74E
:1040900023FFFFF7BEFEA720FFF740FFFFF71CFF3F
:1040A00000240EE0052C05D10020FFF75AFF0DF883
:1040B000040004E00120FFF754FF0DF80400601C29
:1040C000C4B2062CEEDBFFF7BBFE9DF800009DF8A6
:1040D000011000EB012000B228809DF802009DF83D
:1040E000031000EB012000B230809DF804009DF821
:1040F000051000EB012000B23880BDE8FC812DE9FD
:10410000FE4304460D4616461F46002020602860E8
:104110003060002F45D0804626E06A4601A902A8FB
:10412000FFF7A6FFBDF9080000F0A0FF8146216857
:1041300000F062FE2060BDF9040000F097FF8146A8
:10414000296800F059FE2860BDF9000000F08EFFDC
:104150008146316800F050FE30600520FFF703FA19
:1041600008F1010000F0FF08B845D6DB384600F042
:1041700086FF81464946206800F0C8FE2060384628
:1041800000F07DFF81464946286800F0BFFE2860A8
:10419000384600F074FF81464946306800F0B6FEAC
:1041A0003060BDE8FE8300000146088870472DE9B5
:1041B000F04105460E461746002407E036F8141075
:1041C0002846FCF796FAAD1C601C84B2BC42F5DBB5
:1041D000BDE8F08130B503460C461546002207E0E5
:1041E0001846FFF7E1FF24F812009B1C501C82B216
:1041F000AA42F5DB30BD2DE9F05F80468A461746BE
:10420000B8F1006F02D33748804501D3BDE8F09F75
:10421000FCF727F9A8F1006B4FEA9B25CBF348097F
:10422000C9F50074A74200DC3C464DE04FF0006148
:1042300001EB85208A142C49FFF7CCFF00260BE008
:1042400009EB0600284931F810004FF6FF7188424B
:1042500000D003E0701C86B2A642F1DB00BFA6428C
:104260001BDA4FF0006101EB8520FCF73FF90026D7
:1042700008E03AF8160006EB09011B4A22F8110083
:10428000701C86B2A642F4DB4FF0006101EB852082
:104290008A141549FFF78BFF04E022465146404639
:1042A000FFF785FFA74200D10FE06D1C4FF000091A
:1042B0000AEB440AA044381B87B2B7F5007F02DD41
:1042C0004FF4007400E03C46B0E700BFFCF7D5F8BF
:1042D00000BF9BE713B50446012201A92046FFF762
:1042E0008AFF1CBD00000208640D0020014600BFCB
:1042F000704700BF534A128802F04002002AF9D0EA
:10430000C2B2504B1B1D1A80704710B586B00446D0
:10431000012144F20500FDF781F84A48FDF7E2F873
:104320004FF40070ADF8140003208DF8160018202B
:104330008DF8170005A94448FCF7B2FB4FF48060E4
:10434000ADF8140004208DF8170005A93E48FCF7CD
:10435000A7FB25208DF8000000208DF801008DF8C6
:10436000020001208DF803006846FBF7F2FF01947C
:104370000020ADF80800ADF80A00ADF80C00ADF86B
:1043800010000C20ADF80E0001A92E48FDF7EDF845
:1043900001A92C48FDF7E9F8012240F225512948EE
:1043A000FDF77BF9002240F224412648FDF775F91C
:1043B00001212448FDF765F906B010BD10B540F2A3
:1043C00025512048FDF74EFA90B12048006830286A
:1043D00002D300201D4908601A48FDF7C3F9C1B295
:1043E0001A4802680068401C184B1860184881542D
:1043F00040F225511348FDF75FFA10BD0BE000BFF6
:104400001049098801F040010029F9D001780D4ACE
:10441000121D1180401C01780029F0D170470BE07B
:1044200000BF084A128802F04002002AF9D0027840
:10443000044B1B1D1A80401C0A00A1F10103D9B2D4
:10444000EED1704700380140000801406C030020A5
:1044500064110020002001E0411CC8B21E28FBDBD3
:10446000704710B54FF480607F4908604000091F15
:104470000860FFF7EFFF4FF480607B49091F086079
:10448000FFF7E8FF10BD08B501210820FCF7C6FFC3
:1044900003208DF8020014208DF803004FF4006013
:1044A000ADF80000694670481438FCF7F9FA4FF48B
:1044B0008060ADF8000069466B481438FCF7F0FAEC
:1044C000FFF7CFFF08BD10B54FF480606649091FA4
:1044D000086040000860FFF7BDFF4FF4806062494C
:1044E0000860FFF7B7FF4FF400605F490860FFF70F
:1044F000B1FF10BD70B50446002524E004F0800033
:1045000028B14FF480605849091F086003E04FF458
:10451000806055490860FFF79DFF4FF400605249E5
:10452000091F0860FFF796FF4FF400604E490860CE
:10453000072D02D14010091F08606006040EFFF726
:1045400089FF681CC5B2082DD8DB70BD70B500248A
:10455000002518E06006040E4FF400604249091F70
:104560000860FFF777FF40480C38006800F480606F
:1045700008B1601CC4B24FF400603B490860FFF70B
:1045800069FF681CC5B2082DE4DB204670BD10B57C
:104590004FF480603449091F0860FFF75BFF4FF458
:1045A00000603149091F0860FFF754FF2E480C389E
:1045B000006800F4806008B1012400E000244FF49A
:1045C000006029490860FFF745FF204610BD10B57F
:1045D0004FF4806024490860FFF73CFF4FF400600F
:1045E0002149091F0860FFF735FF4FF400601E499D
:1045F0000860FFF72FFF4FF480601B49091F086018
:1046000010BD10B54FF480601749091F0860FFF70F
:1046100021FF4FF400601449091F0860FFF71AFFDB
:104620004FF4006010490860FFF714FF10BD70B52B
:1046300004460D480C38006800F4806088B10A48D0
:104640000C38006800F4006058B1FFF73CFF2046CA
:10465000FFF750FFFFF79BFF0546FFF702FF2846D5
:1046600070BD0120FCE70000140C014070B5054648
:104670000C46FFF728FFAE20FFF73CFFFFF787FF50
:1046800000B111E02846FFF735FFFFF780FF00B1CA
:104690000AE02046FFF72EFFFFF779FF00B103E0A5
:1046A000FFF7DFFE012070BDFFF7DBFE0020FAE719
:1046B00070B505460C46FFF706FFAE20FFF71AFF60
:1046C000FFF765FF00B118E02846FFF713FFFFF77B
:1046D0005EFF00B111E0FFF7F6FEAF20FFF70AFF23
:1046E000FFF755FF00B108E0FFF730FF2070FFF73C
:1046F00088FFFFF7B6FE012070BDFFF7B2FE002075
:10470000FAE710B5C0210220FFF7B0FF08B900207A
:1047100010BD00210320FFF7A9FF08B90020F7E72B
:1047200000210420FFF7A2FF08B90020F0E70021D4
:104730000520FFF79BFF08B90020E9E700210620CC
:10474000FFF794FF08B90020E2E76F210820FFF788
:104750008DFF08B90020DBE703210920FFF786FF62
:1047600008B90020D4E72F210A20FFF77FFF08B9FE
:104770000020CDE717210C20FFF778FF08B90020B3
:10478000C6E717210D20FFF771FF08B90020BFE72A
:104790007F211020FFF76AFF08B90020B8E7012049
:1047A000B6E7F8B504460D4600202860206069464B
:1047B000FFF77EFF69460120FFF77AFFFFF783FED0
:1047C000AE20FFF797FEFFF7E2FE18B130A000F031
:1047D0004BFF4FE00720FFF78DFEFFF7D8FE00B13B
:1047E00048E0FFF770FEAF20FFF784FEFFF7CFFE33
:1047F00000B13FE0FFF7AAFE0646FFF7E8FE3604E9
:10480000206830442060FFF7A1FE0646FFF7DFFE78
:104810003602206830442060FFF798FE0646FFF716
:10482000D6FE206830442060FFF790FE0646FFF772
:10483000CEFE3604286830442860FFF787FE06461F
:10484000FFF7C5FE3602286830442860FFF77EFE79
:104850000646FFF7BCFE2868304428602068C0F395
:10486000110020602868C0F311002860FFF7F9FDEF
:104870000120F8BDFFF7F5FD0020FAE710B5402153
:104880000920FFF7F3FE08B9002010BD0120FCE766
:1048900072656164206669666F206661696C656433
:1048A0000000000030B50C46012213E050F8223021
:1048B000114605E04D1E50F8255040F82150491E84
:1048C000002904DD4D1E50F825509D42F2DC40F8D1
:1048D0002130521CA242E9DB30BDF0B5034615463B
:1048E000012217E051F82240104605E0461E51F81B
:1048F000266041F82060401E002808DD53F824702F
:10490000461E51F8266053F82660B742EEDC41F8A7
:104910002040521CAA42E5DBF0BD2DE9F04F0546D0
:104920000C4692469846294650462268FFF7D5FF26
:104930004FF0FF3621E0D4F800B0701C2060771CE7
:1049400018E055F82710701C10B94FF0FF3001E047
:1049500055F82600A1EB0009C14503DCC8F10000B1
:10496000814506DA55F827102268501C206045F86A
:1049700022107F1C5F45E4DB761C2068B042DADC45
:1049800028462168FFF78EFFBDE8F08F2DE9F0473C
:1049900005461E46089C01204FF000080023002712
:1049A0004FF0040C4FF00009C1F800903DE0BFBB90
:1049B00052F82090A14509DD52F820A0A0F101098C
:1049C00052F82990CA4501DD4FF00108B8F1010FF6
:1049D0002AD152F82090A14505DA634503DA4FF059
:1049E0000008002320E063451BD152F82090A14528
:1049F0001ADAA0F1010952F82990A14514DBD1F887
:104A00000090B9F10F0F07DAD1F800A00AF10109FF
:104A1000C1F8009045F82A0000239846082703E0D3
:104A200001E05B1C00E07F1E401CA6F101098145EE
:104A3000BDDCBDE8F0872DE9F84705460C46164673
:104A40001F46DDE90A9ADDF824803B4632462146BE
:104A50002846CDF80080FFF799FF4B4632462146A5
:104A60002846FFF75AFF2068504501DA206800E029
:104A700050462060BDE8F8872DE9FF4FA4B083467B
:104A8000884600202390002405E05BF8241023983A
:104A900008442390641C4445F7DB2398B0FBF8F0EE
:104AA0002390002408E05BF824102398081A404261
:104AB000C44941F82400641C4445F4DB002417E099
:104AC000C04951F824200B46611C53F821100A44B8
:104AD000A11C53F821100A44E11C53F8211050186E
:104AE000C11700EB917189101A4642F82410641C1A
:104AF000922CE5DB0027002404E0B24850F82400A3
:104B00000744641C962CF8DB962097FBF0F71E2FC9
:104B100000DA1E273C2F00DD3C27002404E00020A3
:104B200012A941F82400641C0F2CF8DB0F2004218B
:104B30009623A44ACDE90071029021A912A8FFF79B
:104B40007AFF002011902198022821DB01240BE03C
:104B500012A850F82410601E12AA52F82000091A58
:104B6000119808441190641C21988442F0DB21982C
:104B7000401E119991FBF0F0119040F6B831119858
:104B800091FBF0F13298016001213398017005E04A
:104B90008D493298016000213398017000240BE0A8
:104BA0005BF82400874941F82400269850F8240037
:104BB000864941F82400641C4445F1DB2198229089
:104BC000002005900026002404E0002006A941F8FA
:104BD0002400641C052CF8DB00240EE012A850F819
:104BE0002400962808DD7849279801600021319833
:104BF000017028B0BDE8F08F641C22988442EDDB80
:104C00000024A3E04FF07F400D900C9012A9601C8F
:104C100051F8200051F82410401A03287EDD12A814
:104C200050F8245016E0674850F825100C9881423F
:104C300004DD644850F825000C900B95634850F84B
:104C400025100D98814204DD604850F825000D9034
:104C5000AA466D1C12A9601C51F82000A842E2DC93
:104C6000601C51F82000594951F8200012A951F850
:104C70002410564A52F82110401A12A951F8241053
:104C8000AAEB01014843109012A9601C51F82000C2
:104C900051F82410411A109890FBF1F012A951F824
:104CA000241052F8211008441090104650F82A1091
:104CB0001098081A109012A9601C51F82000414960
:104CC00051F8200012A951F824103E4A52F8211040
:104CD000401A12A951F824200B99891A48430F90C1
:104CE00012A9601C51F8200051F82410411A0F98A5
:104CF00090FBF1F012A951F82410324A52F8211019
:104D000008440F90104650F82A100F98081A0F9078
:104D10000C9910984843C011049000E015E00D99DB
:104D20000F984843C0110390039800280DDD052E0D
:104D30000BDA049848B1642104984843039990FB26
:104D4000F1F006A941F82600761C641C2298401E4A
:104D5000A0423FF757AF314606A8FFF7A3FD304604
:104D600006EBD0714FEA6109B9F1010F0CDDA9F131
:104D7000010106AA52F8211052F82920881800EBE8
:104D8000D0714910059103E006A850F8290005905C
:104D9000059802280DDD0598B8280ADA0C4905980F
:104DA000085C0E9027990E980860012131980170D7
:104DB00005E005492798016000213198017000BF86
:104DC00017E700009411002019FCFFFFEC130020EE
:104DD0005267000830B505462A460B4612F8010B0B
:104DE00013F8014B08B1A042F8D01CB1002802D042
:104DF0006D1CF1E7284630BDF0B480EA0102D40F03
:104E00004200B2EB410F02D20246084611464A0068
:104E100042D0C30DDDB2C1F3C752AD1A202D35DA31
:104E2000C1F3160141F4000204B15242C5F120065B
:104E300002FA06F12A411044B3EBD05F23D0C4B18B
:104E4000012DA0EBC35009DCF0BC4FF0004202EA98
:104E5000C352DBB200F5000000F0D6B9400000F10B
:104E6000807000EBC350A0F1807040EAD17049001F
:104E700009E0490841EAC071A0EBC35000F5000009
:104E8000400800EBC350F0BC00F0B5B9614201220C
:104E900002EB4101001BF6E7F0BC704781F00041D6
:104EA000AAE780F00040A7E780EA010210B502F00F
:104EB0000043400022D04A001FD0010E01EB1261D6
:104EC000C0F35600C2F3560240F4000042F4000260
:104ED000A0FB022000047F39140400D0401C50EADB
:104EE000124001D44000491EC2B20C0604EBD0109F
:104EF000401C4008802A02D003E0002010BD20F0B2
:104F00000100002900DA0020184310BD30B480EA07
:104F1000010202F0004530F0004221F0004013D0C1
:104F200090B1C30DD40DC2F31601C0F31600E41AFC
:104F300041F4000140F400027D34914201D3641C2D
:104F400000E04900002C02DA30BC002070474FF42A
:104F500000000023914201D3891A034340084FEA1D
:104F60004101F7D151B1914202D14FF0004105E02A
:104F700002D24FF0010101E06FF0010103EBC450D8
:104F8000284430BC00F037B92DE9FE4F81EA030414
:104F900004F0004421F0004100944FF0000B23F096
:104FA000004350EA01045ED052EA03045BD0C3F32D
:104FB0000A54C1F30A552C44A4F2F3340194A0FB23
:104FC0000254C1F3130141F48011C3F3130343F4FA
:104FD000801301FB024400FB034E840A970A44EA53
:104FE000815447EA8357A4FB076802958D0A05FBA5
:104FF00007854FEA932C04FB0C542705029D4FEACA
:10500000065847EA1637B5EB08056EEB070C870E16
:10501000920E47EA811742EA8312A7FB0201B6EB20
:105020000B0164EB00042B0D43EA0C335E1844EBD8
:105030001C50DA465146E7FB0201C5F313044FEA60
:105040000B3343EA14534FEA0432019C43EA06034C
:10505000A4F10C040294009CCDE900B400F011F915
:1050600003B0BDE8F08F00200146F9E7C10F80EAE8
:10507000E0700844CA079623002100F0C5B89623C3
:105080000022114600F0C0B800F0004220F00040BD
:10509000C10DC0F3160040F400007F2901DA0020A2
:1050A0007047962903DCC1F19601C84001E09639AA
:1050B0008840002AF4D04042704770B5C1F30A52CC
:1050C00001F000450024C1F3130140F2FF3341F425
:1050D00080119A4201DA002070BD40F233439A42B7
:1050E000A2F2334203DC524200F075F800E0904037
:1050F0002C43F1D0404270BD00F0004230F000403F
:105100000AD0C10D01F56071C0F3160042EA0151E9
:10511000C208400711437047002001467047000055
:10512000002801DBC0F10040002901DBC1F1004192
:1051300081427047002801DBC0F10040002901DBFB
:10514000C1F100418842704730B50B46014600204E
:105150002022012409E021FA02F59D4205D303FA39
:1051600002F5491B04FA02F52844151EA2F10102BA
:10517000F1DC30BD2DE9F05F0546002092469B46EC
:1051800088460646814640241BE02846414647465D
:10519000224600F020F853465A46C01A914110D3D7
:1051A00011461846224600F013FA2D1A67EB010843
:1051B0004F4622460120002100F00AFA17EB0009B1
:1051C0004E41201EA4F10104DFDC484631462A4648
:1051D0004346BDE8F09F202A04DB203A21FA02F082
:1051E0000021704721FA02F3D040C2F12002914021
:1051F0000843194670470029A8BF7047401C490062
:1052000008BF20F00100704710B4B0FA80FC00FA2B
:105210000CF050EA010404BF10BC704749B1CCF156
:10522000200421FA04F411FA0CF118BF01212143E2
:105230000843A3EB0C01CB1D4FEA00614FEA10209D
:1052400042BF002010BC704700EBC350104400293F
:10525000A4BF10BC7047401C490008BF20F00100EB
:1052600010BC704710B5141E73F1000408DA401C1E
:1052700041F1000192185B411A4301D120F0010075
:1052800010BD2DE9F04D92469B4611B1B1FA81F265
:1052900002E0B0FA80F22032904600F099F904461C
:1052A0000F4640EA0A0041EA0B0153465A460843BA
:1052B00013D0114653EA010019D0C8F140025046FC
:1052C000FFF789FF05460E4650465946424600F014
:1052D0007FF9084305D0012004E020463946BDE8A7
:1052E000F08D0020054346EAE0762C4337430A98C8
:1052F0006305E40AA0EB08000022FD0A44EA4754D3
:105300000A3002D500200146E9E70105101969417C
:10531000DDE9084500196941BDE8F04DA2E72DE936
:10532000FE4F804681EA0300C00F0C46009021F03A
:10533000004123F00045B8EB0200A94105D24046E8
:10534000214690461C460B46024623F0004010437F
:1053500047D0270DC7F30A00C3F30A510290401A41
:10536000019040286BDAC3F3130040F4801B0098CF
:10537000924620B10023D2EB030A63EB0B0B01989A
:105380005946C0F14002504600F022F906460D464B
:1053900050465946019A00F02AF910EB0800614185
:1053A000002487EA115284EAE7731A4340D0009A36
:1053B00062B3019A012A4FEA075215DC001B61EB28
:1053C00002014FF0004202EA0752CDE90042001C00
:1053D00041F5801132462B46FFF753FF03B0BDE87D
:1053E000F08F40462146F9E7001B61EB0201001CEB
:1053F00041F5801300185B412018A2F5001747EB18
:10540000030140EAD570B6196D4111E06D084FEA0D
:10541000360645EAC0754FEA0752001B61EB0201F0
:10542000001C41F5801149084FEA30000019514134
:1054300032462B4603B0BDE8F04FFFF713BF00988C
:10544000012240000023D0EB020263EBE0730098DE
:1054500021464FEAE074B8EB000061EB0401E9E794
:1054600083F000435BE781F0004158E72DE9F04D00
:1054700081EA030404F0004B21F0004514464FF08C
:10548000000A23F0004150EA050220D054EA01024C
:105490001DD0C5F30A570246C5F31303C1F3130029
:1054A000C1F30A5640F4801543F48013A7EB0608B5
:1054B000101BD64608F2FD3873EB050002D308F145
:1054C000010801E092185B41B8F1000F03DA0020F7
:1054D0000146BDE8F08D00204FF480110646844659
:1054E0000EE0171B73EB050705D3121B63EB0503D7
:1054F00006434CEA010C49084FEA300092185B4120
:1055000050EA0107EDD152EA030012D082EA04000A
:1055100083EA0501084305D0101BAB4106D20122E6
:10552000002306E000224FF0004302E06FF001028A
:1055300053101AEB06004CEB085110EB0A0041EB3C
:105540000B01BDE8F04DFFF78DBEC1F30A52C1F368
:10555000130140F2FF3341F480119A4202DA002035
:105560000146704740F233439A42A2F2334202DCD2
:105570005242FFF730BE00F02BB8000030B5041ED9
:1055800071F1000404DB4FF00044404264EB010180
:10559000141E73F1000405DB1C464FF00043524219
:1055A00063EB0403994208BF904230BD064C074D9F
:1055B00006E0E06840F0010394E8070098471034E3
:1055C000AC42F6D3FAF7B8FD0C6800082C68000866
:1055D000202A04DB203A00FA02F1002070479140B3
:1055E000C2F1200320FA03F3194390407047202AA8
:1055F00006DBCB17203A41FA02F043EAE07306E0FB
:1056000041FA02F3D040C2F120029140084319460A
:10561000704770B58C1810F8015B15F0070301D1C5
:1056200010F8013B2A1106D110F8012B03E010F805
:10563000016B01F8016B5B1EF9D12B0705D4002328
:10564000521E0DD401F8013BFAE710F8013BCB1ACA
:10565000921C03E013F8015B01F8015B521EF9D5BF
:10566000A142D8D3002070BD0FB4054B10B503A9DB
:10567000044A029800F0CAF810BC5DF814FB000060
:10568000F34200087003002002E008C8121F08C19E
:10569000002AFAD170477047002001E001C1121FB3
:1056A000002AFBD1704700002DE9FF5FDDE90220F1
:1056B000010DDDF838B0024318D044F61050A1F2C5
:1056C000FF3141430D140F98012820D0A5EB0B00AA
:1056D000401C5FEA000A4FF00004474EDFF81C91BF
:1056E000A046504616D5CAF1000728E00F980124BD
:1056F00043A2012808D0002100980F9BC0E9002197
:10570000C0E90243BDE8FF9F6FEA0B01F4E7CBF16C
:105710000000DEE7074612E0F80707D022463346CE
:1057200040464946FFF730FC8046894622463346CC
:1057300010461946FFF728FC04460E467F10002F3E
:10574000EAD1DDE90201BAF1000F42464B4602DA26
:10575000FFF71AFC01E0FFF789FE04460E4600221F
:10576000284BFFF70BFF03D84FF0FF30014607E04F
:105770000022254B20463146FFF7D1FDFFF7E5FE1D
:10578000102409E0002C0ADB0A220023FFF7F2FCB8
:10579000019B30321A55641E50EA0102F2D1641C9A
:1057A000019AC4F1110314440F9A012A03D0012273
:1057B00008430DD10AE0084304D000204FF0110B3C
:1057C0000F9080E7A3EB0B056D1E0DE05B4504DD3C
:1057D0004FF0000205F1010504E003DA4FF000028A
:1057E000A5F10105002AECD000980F99C0E902311B
:1057F000C0E9004586E70000000024400000F03FBB
:10580000300000000000F0430000E03F2DE9FF4FB2
:1058100095B09B468946064600250FE2252877D19C
:1058200000242746F84A0121059400E0044316F8B5
:10583000013F203B01FA03F01042F7D130782A28CB
:1058400011D06FF02F033078A0F13002092A16D85A
:10585000059A44F0020402EB820203EB4202104478
:10586000761C0590EFE759F8042B0592002A03DA1D
:10587000504244F40054059044F00204761C307801
:105880002E2816D116F8010F44F004042A280DD052
:105890006FF02F023078A0F13003092B09D807EB05
:1058A000870302EB4303C718761CF3E759F8047B20
:1058B000761C30786C280FD006DC4C2817D068286E
:1058C0000DD06A2814D104E0742810D07A280FD1A2
:1058D0000DE044F400140AE044F4801401E044F4C0
:1058E00040147278824202D104F58014761C761C32
:1058F000307866280BD013DC582877D009DC0028D4
:1059000075D04528F6D04628F4D047281AD19DE115
:1059100018E0632835D0642879D0652812D195E144
:10592000702873D008DC6728F1D069286FD06E2802
:105930000DD06F2806D1B5E073282CD0752875D00E
:10594000782874D05A46179990476D1C75E1C4F3B6
:105950000250022809D003280DD0D9F800100428DD
:105960000DD00D6009F1040967E1D9F80010EA17BC
:10597000C1E90052F6E7D9F800100D80F2E70D708A
:10598000F0E719F8041B8DF8001000208DF80100D5
:10599000EA46012003E059F804AB4FF0FF306107FD
:1059A0004FF0000102D40DE008F101018846B94230
:1059B0000FDA8045F8DB1AF808100029F4D108E066
:1059C00008F1010188468142FADB1AF80810002923
:1059D000F6D105985B46A0EB080721463846179A92
:1059E00000F094FA284400EB080507E04DE029E1B7
:1059F0000DE01AF8010B5A4617999047B8F10108C3
:105A0000F7D25B4621463846179A13E142E00A2254
:105A10000092C4F302524FF0000A022A08D059F84B
:105A200004CB032A4FEAEC710AD00DE029E02AE00A
:105A300009F1070121F00702F2E802C1914609E0ED
:105A40000FFA8CFC4FEAEC71042A03D14FFA8CFC5C
:105A50004FEAEC71002907DA0A460021DCF1000C5C
:105A600061EB02012D2202E0220504D52B228DF8E4
:105A70000420012203E0E20701D02022F7E790464C
:105A800059E00A2102E010220DE010214FF0000A37
:105A900000910BE010224FF0000A44F004040827A4
:105AA000009203E008224FF0000A0092C4F3025271
:105AB000022A05D059F804CB0021032A08D009E0B6
:105AC00009F1070121F00702F2E802C1914605E061
:105AD0001FFA8CFC042A01D10CF0FF0C4FF00008D7
